{
    "items": [
        {
            "priority_fee": null,
            "raw_input": "0xa9059cbb0000000000000000000000003e55dc664a7b5785823abd54e69c09dcebd3a98800000000000000000000000000000000000000000000000000000006cdb51340",
            "result": "success",
            "hash": "0xd04bbe9a656ef5d439ebcf8cb783d773ace2f36303ca1e24c757d0654ba641d3",
            "max_fee_per_gas": null,
            "revert_reason": null,
            "confirmation_duration": [
                0,
                2000
            ],
            "transaction_burnt_fee": null,
            "type": 0,
            "token_transfers_overflow": null,
            "confirmations": 874,
            "position": 1,
            "max_priority_fee_per_gas": null,
            "transaction_tag": null,
            "created_contract": null,
            "value": "0",
            "from": {
                "ens_domain_name": null,
                "hash": "0xD658CB376870dBdF47197C90F6759050E829E335",
                "implementations": [],
                "is_contract": false,
                "is_scam": false,
                "is_verified": false,
                "metadata": null,
                "name": null,
                "private_tags": [],
                "proxy_type": null,
                "public_tags": [],
                "watchlist_names": []
            },
            "gas_used": "36894",
            "status": "ok",
            "to": {
                "ens_domain_name": null,
                "hash": "0x16825846601a34a5EC7bc48E3495b4C02eeBfCac",
                "implementations": [],
                "is_contract": true,
                "is_scam": false,
                "is_verified": true,
                "metadata": null,
                "name": "NuzoRewardToken",
                "private_tags": [],
                "proxy_type": "unknown",
                "public_tags": [],
                "watchlist_names": []
            },
            "authorization_list": [],
            "method": "transfer",
            "fee": {
                "type": "actual",
                "value": "135699353106"
            },
            "actions": [],
            "gas_limit": "41939",
            "gas_price": "1001015",
            "decoded_input": {
                "method_call": "transfer(address recipient, uint256 amount)",
                "method_id": "a9059cbb",
                "parameters": [
                    {
                        "name": "recipient",
                        "type": "address",
                        "value": "0x3E55Dc664A7B5785823ABD54E69C09DcEbD3A988"
                    },
                    {
                        "name": "amount",
                        "type": "uint256",
                        "value": "29221000000"
                    }
                ]
            },
            "token_transfers": null,
            "base_fee_per_gas": "1015",
            "timestamp": "2025-05-11T11:41:07.000000Z",
            "nonce": 0,
            "historic_exchange_rate": "2592.69",
            "transaction_types": [
                "contract_call",
                "token_transfer"
            ],
            "exchange_rate": "2529.79",
            "block_number": 16117438,
            "has_error_in_internal_transactions": false
        },
        {
            "priority_fee": null,
            "raw_input": "0x",
            "result": "success",
            "hash": "0x752277041759de8984d5d3269be11728f198537dee0c6f26e616bfb174a109cb",
            "max_fee_per_gas": null,
            "revert_reason": null,
            "confirmation_duration": [
                0,
                2000
            ],
            "transaction_burnt_fee": null,
            "type": 0,
            "token_transfers_overflow": null,
            "confirmations": 882,
            "position": 1,
            "max_priority_fee_per_gas": null,
            "transaction_tag": null,
            "created_contract": null,
            "value": "2200000000000",
            "from": {
                "ens_domain_name": null,
                "hash": "0xa76D02E3B083179804088b1D4A5B5367D28c69B6",
                "implementations": [],
                "is_contract": false,
                "is_scam": false,
                "is_verified": false,
                "metadata": null,
                "name": null,
                "private_tags": [],
                "proxy_type": null,
                "public_tags": [],
                "watchlist_names": []
            },
            "gas_used": "21000",
            "status": "ok",
            "to": {
                "ens_domain_name": null,
                "hash": "0xD658CB376870dBdF47197C90F6759050E829E335",
                "implementations": [],
                "is_contract": false,
                "is_scam": false,
                "is_verified": false,
                "metadata": null,
                "name": null,
                "private_tags": [],
                "proxy_type": null,
                "public_tags": [],
                "watchlist_names": []
            },
            "authorization_list": [],
            "method": null,
            "fee": {
                "type": "actual",
                "value": "113492839950"
            },
            "actions": [],
            "gas_limit": "21000",
            "gas_price": "1001015",
            "decoded_input": null,
            "token_transfers": null,
            "base_fee_per_gas": "1015",
            "timestamp": "2025-05-11T11:40:51.000000Z",
            "nonce": 7180,
            "historic_exchange_rate": "2592.69",
            "transaction_types": [
                "coin_transfer"
            ],
            "exchange_rate": "2529.79",
            "block_number": 16117430,
            "has_error_in_internal_transactions": false
        }
    ],
    "next_page_params": null
}